{
  "contractName": "BasicDapp",
  "abi": [
    {
      "inputs": [],
      "stateMutability": "nonpayable",
      "type": "constructor"
    },
    {
      "inputs": [
        {
          "internalType": "uint256",
          "name": "amount",
          "type": "uint256"
        }
      ],
      "name": "sendBalance",
      "outputs": [],
      "stateMutability": "nonpayable",
      "type": "function"
    },
    {
      "inputs": [
        {
          "internalType": "uint256",
          "name": "amount",
          "type": "uint256"
        }
      ],
      "name": "withDrawBalance",
      "outputs": [],
      "stateMutability": "nonpayable",
      "type": "function"
    },
    {
      "inputs": [],
      "name": "getBalance",
      "outputs": [
        {
          "internalType": "uint256",
          "name": "",
          "type": "uint256"
        }
      ],
      "stateMutability": "view",
      "type": "function"
    }
  ],
  "bytecode": "0x608060405234801561000f575f80fd5b505f80819055506102e3806100235f395ff3fe608060405234801561000f575f80fd5b506004361061003f575f3560e01c806312065fe0146100435780635c449c00146100615780636ba9a40b1461007d575b5f80fd5b61004b610099565b6040516100589190610130565b60405180910390f35b61007b60048036038101906100769190610177565b6100a1565b005b61009760048036038101906100929190610177565b6100bb565b005b5f8054905090565b805f808282546100b191906101cf565b9250508190555050565b805f54116100fe576040517f08c379a00000000000000000000000000000000000000000000000000000000081526004016100f59061025c565b60405180910390fd5b805f8082825461010e919061027a565b9250508190555050565b5f819050919050565b61012a81610118565b82525050565b5f6020820190506101435f830184610121565b92915050565b5f80fd5b61015681610118565b8114610160575f80fd5b50565b5f813590506101718161014d565b92915050565b5f6020828403121561018c5761018b610149565b5b5f61019984828501610163565b91505092915050565b7f4e487b71000000000000000000000000000000000000000000000000000000005f52601160045260245ffd5b5f6101d982610118565b91506101e483610118565b92508282019050808211156101fc576101fb6101a2565b5b92915050565b5f82825260208201905092915050565b7f4e6f7420456e6f7567682042616c616e636500000000000000000000000000005f82015250565b5f610246601283610202565b915061025182610212565b602082019050919050565b5f6020820190508181035f8301526102738161023a565b9050919050565b5f61028482610118565b915061028f83610118565b92508282039050818111156102a7576102a66101a2565b5b9291505056fea26469706673582212206eb7722fad305776939312a2a7f2241628af80cf2882551c8fc4df8037b174c164736f6c63430008140033",
  "immutableReferences": {},
  "source": "// SPDX-License-Identifier: MIT\r\npragma solidity >=0.8.2 <0.9.0;\r\n\r\ncontract BasicDapp {\r\n\r\n    uint balance;\r\n\r\n    constructor() {\r\n        balance = 0;\r\n    }\r\n\r\n    function sendBalance(uint amount) public {\r\n        balance += amount;\r\n    }\r\n\r\n    function withDrawBalance(uint amount) public {\r\n        require(balance > amount ,\"Not Enough Balance\");\r\n        balance -= amount;\r\n    }\r\n\r\n    function getBalance() public view returns (uint){\r\n        return balance;\r\n    }\r\n\r\n}",
  "sourcePath": "C:\\myDev\\flutter_projects\\try_dapp\\contracts\\count.sol",
  "compiler": {
    "name": "solc",
    "version": "0.8.20+commit.a1b79de6.Emscripten.clang"
  },
  "schemaVersion": "3.4.14",
  "updatedAt": "2023-05-24T01:35:32.974Z",
  "devdoc": {
    "kind": "dev",
    "methods": {},
    "version": 1
  },
  "userdoc": {
    "kind": "user",
    "methods": {},
    "version": 1
  }
}